:020000040800F2
:10000000D0050020AD010008ED260008F51C000811
:10001000E926000811060008FD370008000000006E
:10002000000000000000000000000000412900085E
:1000300031070008000000001D270008752900088E
:10004000C7010008C7010008C7010008C701000870
:10005000C7010008C7010008C7010008C701000860
:10006000C7010008C7010008C7010008C701000850
:10007000C7010008C7010008C7010008C701000840
:10008000C7010008C7010008C70100080000000000
:10009000000000000000000000000000C701000890
:1000A000C7010008C7010008C7010008C701000810
:1000B000C7010008C7010008C7010008C701000800
:1000C000C7010008C7010008C7010008C7010008F0
:1000D000C7010008C7010008C701000800000000B0
:1000E000C7010008C7010008C701000800000000A0
:1000F000000000000000000000000000C701000830
:1001000000000000C7010008C7010008C70100087F
:1001100000000000000000000000000000000000DF
:10012000C7010008C701000815060008C70100083C
:10013000C7010008000000000000000000000000EF
:10014000000000000000000000000000C7010008DF
:10015000C7010008C7010008C7010008C70100085F
:10016000C7010008C70100080000000000000000EF
:10017000000000000000000000000000000000007F
:1001800000000000C701000800000000000000009F
:10019000C7010008C7010008DFF80CD000F026FAFC
:1001A00000480047DD3B0008D00500200648804796
:1001B00006480047FEE7FEE7FEE7FEE7FEE7FEE74C
:1001C000FEE7FEE7FEE7FEE7212A000899010008A6
:1001D0002DE9F05F0546002092469B46884606467C
:1001E000814640241BE0284641464746224600F00F
:1001F0003EF953465A46C01A914110D3114618464B
:10020000224600F025F92D1A67EB01084F462246D9
:100210000120002100F01CF917EB00094E41201EBF
:10022000A4F10104DFDC484631462A464346BDE8D6
:10023000F09FD2B201E000F8012B491EFBD27047BB
:100240000022F6E710B513460A4604461946FFF7A2
:10025000F0FF204610BD2DE9FE4F81EA030404F0B3
:10026000004421F0004100944FF0000B23F00043C4
:1002700050EA01045ED052EA03045BD0C3F30A548F
:10028000C1F30A552C44A4F2F3340194A0FB0254A8
:10029000C1F3130141F48011C3F3130343F480133A
:1002A00001FB024400FB034E840A970A44EA81548E
:1002B00047EA8357A4FB076802958D0A05FB07856B
:1002C0004FEA932C04FB0C542705029D4FEA065875
:1002D00047EA1637B5EB08056EEB070C870E920E52
:1002E00047EA811742EA8312A7FB0201B6EB0B0132
:1002F00064EB00042B0D43EA0C335E1844EB1C50F6
:10030000DA465146E7FB0201C5F313044FEA0B330B
:1003100043EA14534FEA0432019C43EA0603A4F172
:100320000C040294009CCDE900B400F0BFF803B0C7
:10033000BDE8F08F00200146F9E730B5041E71F1E9
:10034000000404DB4FF00044404264EB0101141E42
:1003500073F1000405DB1C464FF00043524263EB8F
:100360000403801A994101D3012030BD002030BD23
:1003700030B5041E71F1000404DB4FF0004440422C
:1003800064EB0101141E73F1000405DB1C464FF001
:100390000043524263EB0403101A8B4101D2012047
:1003A00030BD002030BD0EB540F233410291002136
:1003B000CDE900110A460B4600F078F803B000BD05
:1003C00070B5C1F30A5201F000450024C1F31301D6
:1003D00040F2FF3341F480119A4201DA002070BDEF
:1003E00040F233439A42A2F2334203DC524200F01D
:1003F0003EF800E090402C43F1D0404270BD00F048
:10040000004230F000400AD0C10D01F56071C0F328
:10041000160042EA0151C20840071143704700200C
:100420000146704730B50B460146002020220124CA
:1004300009E021FA02F59D4205D303FA02F5491BB2
:1004400004FA02F52844151EA2F10102F1DC30BDC8
:10045000202A04DB203A00FA02F100207047914084
:10046000C2F1200320FA03F3194390407047202A79
:1004700004DB203A21FA02F00021704721FA02F34E
:10048000D040C2F12002914008431946704710B590
:10049000141E73F1000408DA401C41F100019218A7
:1004A0005B411A4301D120F0010010BD2DE9F04D50
:1004B00092469B4611B1B1FA81F202E0B0FA80F2A5
:1004C00020329046FFF7C4FF04460F4640EA0A0078
:1004D00041EA0B0153465A46084313D0114653EAEA
:1004E000010019D0C8F140025046FFF7C0FF054691
:1004F0000E46504659464246FFF7AAFF084305D02C
:10050000012004E020463946BDE8F08D0020054377
:1005100046EAE0762C4337430A986305E40AA0EBE9
:1005200008000022FD0A44EA47540A3002D50020A0
:100530000146E9E7010510196941DDE9084500199F
:100540006941BDE8F04DA2E72DE9F04D00231A46C0
:100550001B1A8A4103DB00200146BDE8F08DC1F380
:100560000A52C1F3130141F480154FF0000BD1077B
:1005700002D100186D41521E0027044640F2FF11BF
:10058000384601EB620A3E468046024600204FF4A0
:100590008011FFF76CFFC2197141BB1846EB0100D7
:1005A000B4EB030C75EB000C04D3E41A65EB000507
:1005B00017460E46241908F101006D418046342883
:1005C000E3DDF91946EB0600091BA84103D24FF001
:1005D000FF32134601E0002213461BEB070046EBF7
:1005E0000A51BDE8F04DFFF752BF0000064C074D21
:1005F00006E0E06840F0010394E8070098471034F3
:10060000AC42F6D3FFF7CCFD20C2000840C2000880
:10061000FEE7000080B540F24000C2F2000000F0AA
:100620008FF880BDD0F800C06FF00F024AF6AB2300
:1006300052FA8CF2CAF6AA230146A2FB0330000943
:1006400005A31B5C40F2FF302CEA00005F2A88BF44
:100650000430C1E916037047000610160006101694
:100660008269816AB2F5005F06D06AB9022912D0A8
:10067000012914D0D1B90EE0032917D8DFE801F021
:10068000020B020F0120704703293CBF0120704775
:100690001CBF00207047C06AC0F300607047C06A8A
:1006A000A0F1C070B0FA80F0400970470020704798
:1006B0004EF6FC50CEF20000016821F0807101601E
:1006C000016841F08071016041F20000CEF200004B
:1006D000016821F001010160016841F00101016040
:1006E0000021416000BF00BF00BF4068B0FA80F049
:1006F00040097047B0B582B041F204040620CEF242
:1007000000040190256800F023FC4DF68361C4F2DB
:100710001B31A0FB01010198890C4843019000BFE7
:1007200020680199401B8842FAD302B0B0BD000096
:1007300070470000EFF3108072B600BFFEE70000C4
:10074000F0B581B004460020009040F20800C2F2EB
:1007500000000268D4E9166048F2B5133768082132
:10076000C1F64E3381403942A2FB03250CD02268EA
:1007700013685B0708D5136823F004031360B160A6
:10078000616D41F00101616501218140394208D06C
:1007900022685269120604D5B160616D41F0020110
:1007A000616504218140394208D0226812689207AD
:1007B00004D5B160616D41F0040161651021814093
:1007C000394215D020680268120711D5B16002685D
:1007D0000168520306D4C90506D4016821F0080156
:1007E000016001E0080342D4216C09B1204688472A
:1007F000E16D202000FA01F23A4244D020680368FB
:10080000DB0640D5B26094F835300268052B1ED166
:1008100022F016020260426922F080024261226CDC
:100820000AB9A26C1AB1026822F0080202603F20E5
:100830008840B060012084F83500216D0020002937
:1008400084F8340040D02046884701B0F0BD0168EC
:10085000520310D4C90512D4016821F010010160BF
:10086000012084F83500002084F8340007E0A16CF2
:100870000029BBD1BCE7080301D4616C00E0E16B47
:1008800009B120468847606DF0B1606DC00717D090
:10089000052084F835002068A90A026822F00102C8
:1008A000026000BF009A01328A42009202D80268B8
:1008B000D207F7D1012084F83500002084F83400F5
:1008C000E16C09B12046884701B0F0BD2DE9F04147
:1008D000044600F051F9C4B10546022084F8350001
:1008E0000020216884F83400086820F001000860C6
:1008F00026683068C0070BD000F03EF9401B052881
:10090000F6D903212022032042E00120BDE8F08136
:10091000306848F23F01CFF21001251D00EA010CBA
:100920002ECDD4E9050E41EA0C01114319432943A8
:10093000D4E90778084340EA0E01606A3943042885
:1009400041EA080103D1D4E90B2311431943316073
:100950007169042821F0070141EA00050CD1D4E9AE
:100960000A1045EA010538B12046FFF779FE18B1B3
:100970000121402201200BE020467561FFF752FE65
:10098000E16D3F2202FA01F1816000220121002085
:10099000626584F83510BDE8F0810000B0B504460A
:1009A00000F0EAF8054640F23400C2F20000007898
:1009B000611C18BF044400BF00F0DEF8401BA042D9
:1009C000FAD3B0BD2DE9F04F83B000F13E4202F101
:1009D000FF724FEAB22241F200070192C4F202070D
:1009E00007224FF0010E00254FF0000A4FF00008DB
:1009F000B84208BF042200920AE000BF08F10108D3
:100A00000AF1040AB8F1100F05F1020500F0A48004
:100A10000C680EFA08FB14EA0B09EFD04C6804F0DE
:100A2000030CACF1010EBEF1010F11D8032287684F
:100A300002FA05F6CA68B743AA403A4382604268A0
:100A4000C4F3001722EA0B0207FA08F73A434260A0
:100A5000BCF1030F1CD0C26803238E6803FA05F7AC
:100A6000BA4306FA05F73A43BCF1020FC2600FD150
:100A70006FF0030202EA580202440AF01C060F2338
:100A8000176A03FA06F40B69A743B3403B431362AA
:100A9000026803234F68AB409A4307F00303AB405F
:100AA0001A4317F4403F4FF0010E0260A6D0002217
:100AB00043F644030292C4F202031A6843F6004468
:100AC00042F480421A601A68C4F2010402F48042BF
:100AD0000292029A28F003024FF6084B2244CFF606
:100AE000FF7B52F80B300AF00C070F26BE4023EABA
:100AF000060C019B009E042B38BF1E4606FA07F722
:100B000047EA0C0342F80B30A2684B6842EA090737
:100B100043F60C4CDE0258BF22EA0907A760C4F274
:100B2000010CDCF800209E0242EA090758BF22EAC5
:100B30000907CCF8007062689E0342EA090758BFB3
:100B400022EA090767602268DB0342EA090358BF0B
:100B500022EA0903236051E703B0BDE8F08F0000EB
:100B60000069084018BF012070470000002A08BF34
:100B7000090481617047000040F2C810C2F2000011
:100B80000068704740F2340040F2C811C2F2000021
:100B9000C2F2000100780A68104408607047000043
:100BA00080B543F60040C4F20200016841F40071D0
:100BB0000160016841F480610160016841F4807165
:100BC0000160032000F060F80F2000F005F800F04D
:100BD0002BF8002080BD0000B0B540F23402C2F214
:100BE000000240F208011278C2F200014FF47A7359
:100BF0000968B3FBF2F20446B1FBF2F1084600F0DB
:100C000047FF0F2C4FF001050CD858B94FF0FF30BB
:100C100021460022002500F027F840F23800C2F2F9
:100C2000000004602846B0BD82B0002043F64001B9
:100C30000190C4F202014A6842F480424A604A6864
:100C400002F480420192019A0090086840F08050BE
:100C50000860086800F080500090009802B070476B
:100C600080B502F0CDFD80BD70B514460D46064638
:100C700002F0D6FD2946224601F03AFD01463046F3
:100C800002F0D6FD70BD000080B502F0E3FD80BD2E
:100C9000F0B581B00446007810F0050F2CD068271D
:100CA000C4F2472743F670060020C4F202063860FB
:100CB000FFF762FF054600BF56F8700C000105D52E
:100CC000FFF75AFF401B0228F6D93DE0221D07CA54
:100CD00040EA811040EA0270706101203860FFF73D
:100CE0004BFF054656F8700C000105D4FFF744FF92
:100CF000401B0228F6D927E02078800756D543F616
:100D000070060020C4F20206009056F8300C47F23C
:100D1000000740F0805046F8300C56F8300CC4F212
:100D2000000700F0805000900098386840F4807010
:100D30003860FFF721FF05463868C00507D4FFF784
:100D40001BFF401B0228F7D9032001B0F0BD30681B
:100D500010F4407013D0216901F4407188420ED024
:100D6000306840F64061C4F24721012220F440700F
:100D70000A6000220A6030603068C00726D120690E
:100D800056F8681C4FF6FF4300F4407221F4F81146
:100D9000C0F6FF730340B2F5407F08BF194346F821
:100DA000681C31686FF31F300843306020780007FB
:100DB00002D4002001B0F0BD207D40F64061C4F2B5
:100DC0004721C1F8A003002001B0F0BDFFF7D4FE19
:100DD000054641F2883700BF30688007CFD4FFF75F
:100DE000CBFE401BB8424FF00300F5D9ECE7000002
:100DF0002DE9F041002800F08B8043F60808C4F28A
:100E000002080446D8F8F8030D4600F007008842AF
:100E100007D288F8F853D8F8F80300F00700A84282
:100E200076D12068810717D5410705D5D8F800107D
:100E300041F4E051C8F80010010705D5D8F80010BA
:100E400041F46041C8F80010D8F80010A26821F001
:100E5000F0011143C8F80010C0073FD1D8F8F803DB
:100E600000F00700A84207D988F8F853D8F8F8032B
:100E700000F00700A8424BD12068410707D5D8F8F9
:100E80000010E26821F4E0511143C8F80010000797
:100E900008D5D8F80000216920F4604040EAC1007C
:100EA000C8F8000000F05AF8D8F8001044F2D82230
:100EB000C1F30311C0F60002515C40F2080220FAAF
:100EC00001F140F23800C2F200000068C2F20002F4
:100ED0001160FFF781FE0020BDE8F0816068811E8F
:100EE000022907D258F8081C89015CBF0120BDE81F
:100EF000F08110E0012807D158F8081C89035CBF75
:100F00000120BDE8F08106E058F8081C890702D4EA
:100F10000120BDE8F081D8F8001021F0030108435A
:100F2000C8F80000FFF728FE064641F2883700BFE8
:100F3000D8F80000616800F00C00B0EB810F8DD094
:100F4000FFF71AFE801BB842F2D90320BDE8F081FA
:100F500040F20800C2F200000068704710B543F686
:100F60000404C4F20204606800F00C0008280AD0EF
:100F7000042819BF42F20040C0F2F40047F64000D6
:100F8000C0F27D1010BD206821682368490247F631
:100F90004001C0F27D1100F03F02C3F388105CBF36
:100FA00042F20041C0F2F401A1FB00010023FFF76F
:100FB0000FF921680222C1F3014102EB4101B0FBAC
:100FC000F1F010BD2DE9F04182B0002800F0A280C0
:100FD0000446007843F60006C007C4F2020643D078
:100FE000B06800F00C00042805D1306880033BD5C0
:100FF0006068C8BB8EE0B06800F00C00082802D121
:1010000070684002F1D46568B5F5A02F0AD0B5F537
:10101000803F0BD0306820F480303060306820F49E
:10102000802006E0306840F480203060306840F472
:1010300080303060FFF7A0FD002D054611D000BFC5
:101040003068800310D4FFF797FD401B6428F7D960
:1010500022E100BFFFF790FD401B64284FF0030022
:1010600055D830688003F5D4207880071AD5B06849
:1010700010F00C0F09D0B06800F00C00082840F008
:101080008A807068400200F186803068800702D54F
:10109000E06801283ED13068216920F0F80040EA7C
:1010A000C10030602078000738D4207840074CD445
:1010B000A5695DB3B06800F00C00082840F09E8080
:1010C000012D27D07068E16900F480028A4221D1A5
:1010D000216A00F03F028A421CD147F6C071626A61
:1010E0000140B1EB821F15D1A26A0023CFF6FF7336
:1010F00003EBC23200F440316FF30F02914209D189
:10110000E16A00F07060B0EB016F03D1002002B023
:10111000BDE8F081012002B0BDE8F08160690028DF
:1011200040F20000C4F2472057D00121C0F8801ED1
:10113000FFF722FD054600BF706F8007B5D4FFF7AB
:101140001BFD401B0228F7D9A6E0306C10F0805838
:101150000AD100200190306C40F080503064306C37
:1011600000F080500190019847F20007C4F2000798
:101170003868C00524D4386840F480703860FFF7C0
:10118000FBFC05463868C0051AD4FFF7F5FC401B88
:101190000228F7D980E0E068002851D00020C4F28E
:1011A000472001210160FFF7E7FC05463068800712
:1011B0003FF571AFFFF7E0FC401B0228F6D96BE06A
:1011C000A568052D50D0012D52D0306F20F00100C0
:1011D0003067306F20F004004DE00021C0F8801E21
:1011E000FFF7CAFC054600BF706F80077FF55DAF53
:1011F000FFF7C2FC401B0228F6D94DE00027C4F2DD
:10120000472700203866FFF7B7FC022D05460BD1B3
:101210003068800158D5FFF7AFFC401B02284FF023
:101220000300F5D973E700BF306880017FF56EAF2A
:10123000FFF7A2FC401B02284FF00300F4D966E739
:101240000020C4F2472000210160FFF795FC05460D
:10125000306880077FF526AFFFF78EFC401B022821
:101260004FF00300F4D952E7306F40F004003067CC
:10127000306F40F001003067FFF77EFC002D05461F
:1012800041F2883714D000BF306F800713D4FFF7C6
:1012900073FC401BB842F7D9032002B0BDE8F081CF
:1012A000FFF76AFC401BB8424FF003003FF62FAF38
:1012B000306F8007F4D4B8F1000F7FF4F9AE306CD2
:1012C00020F080503064F3E604F11C052FCD084374
:1012D0000021CFF6FF7140EA821001EBC3316FF3BA
:1012E0000F0140EA05600843706001203866FFF78F
:1012F00043FC0446306880013FF508AFFFF73CFC33
:10130000001B02284FF00300F4D900E7002804BFB7
:101310000120704710B50446407F20B90020207797
:10132000204600F037F8022060772068CA21416229
:1013300053214162204601F0F3F920B1F0B1216858
:10134000FF224A6210BD94E803504FF6BF738268D3
:10135000CFF68F731A4082602269114362698368F5
:10136000114319438160C0F810E0016941EA0C4162
:101370000161204601F0FEF90028E0D12168A26950
:101380000B6C23F480230B640B6C1A430A64012159
:101390006177D4E780B586B0006842F60001C4F2F8
:1013A000000188424FF00000CDE90400CDE90200C1
:1013B000CDE9000001D006B080BD022000904FF4BE
:1013C000807004906846FFF763FC002818BFFFF7A1
:1013D000B1F940F63C60C4F247200121016006B03B
:1013E00080BD0000B0B504460068C16821F0A001CE
:1013F000C160FFF7C1FB05462068C068800607D4BE
:10140000FFF7BAFB401BB0F57A7FF5D90320B0BDDA
:101410000020B0BD70B538B10446406A30B100203C
:10142000206104F1140007E0012070BD6068B0F590
:10143000827F03D004F11C00002101600026A66217
:1014400094F8510020B9204684F8506000F03CF830
:10145000022084F8510094E80F0001F482710568BD
:1014600002F4044225F040050560114403F40062D3
:101470002369114403F002026369114403F001027D
:10148000A369E569114403F40072114405F03802C0
:10149000256A114405F08002A56A114305F4005243
:1014A00011430160626A042101EA134102F0100253
:1014B00011444160C16921F40061C1610120666588
:1014C00084F85100304670BD70B586B0044621687E
:1014D00043F60002C4F2000200209142CDE904006C
:1014E000CDE9020001904FD043F20000C4F20100A8
:1014F000814273D1002643F630000096C4F2020008
:10150000416941F480514161416901F48051009188
:1015100000990096016841F001010160006801A98D
:1015200000F0010000900098E02001900220CDE939
:10153000020603200490052005900020C4F202005A
:10154000FFF740FA40F2400546F24040C2F2000583
:10155000C4F202004FF08061402285E847004FF45A
:1015600080304FF48063C5E908062846C5E9043693
:10157000C5E90666FFF7AAF9002818BFFFF7DAF8F1
:10158000A564AC6306B070BD43F630010090C4F2B0
:1015900002010A6942F480420A610A6902F4804247
:1015A0000092009A00900A6842F002020A600968FC
:1015B00001F00201009100994FF460410191022174
:1015C000CDE9021003200490052005900020C4F20C
:1015D000020000F5806001A9FFF7F4F906B070BDC4
:1015E0002DE9F04381B0044640681D461746B0F52A
:1015F000827F0E4602D1A06800285AD094F850008D
:10160000012803D1022001B0BDE8F0834FF00109A9
:1016100084F85090FFF7B0FA94F85110012946D1A0
:101620008046002E4FF0010018BF002F77D0042015
:1016300084F8510000206065A663A787E7872063D0
:10164000A086E086A1682064B1F5004F606408D1EF
:101650002068016821F040010160016821F48041A7
:10166000016020680168490603D4016841F0400127
:101670000160E168E08F49B3002843D06E1C09E0A7
:10168000C068A16B21F8020BA163E08F0138E087ED
:10169000E08FB8B320688168C907F1D1FFF76CFA11
:1016A000002EF5D0A0EB0800A842F1D328E00220DC
:1016B00035E0042084F851002046314632463B464E
:1016C000009500F0F3F801B0BDE8F083D0B16E1CD6
:1016D0000AE0007BA16B0870A06B0130A063E08F73
:1016E0000138E087E08F68B120688168C907F0D1D0
:1016F000FFF742FA002EF5D0A0EB0800A842F1D384
:1017000003200CE020462946424601F047F8002815
:101710001CBF20206065606D002818BF01200021DB
:1017200084F8519084F8501001B0BDE8F0830000B7
:101730002DE9F04381B0044690F85000012803D110
:10174000022001B0BDE8F0834FF001091D461646A6
:101750000F4684F85090FFF70FFA94F851100129C2
:101760005DD18046002F4FF0010018BF002E00F021
:101770009580032084F85100002060652763A686C9
:10178000E686A063A087E087A168C4E91000B1F5F0
:10179000004F08D12068016821F040010160016814
:1017A00041F48041016020680168490603D4016862
:1017B00041F0400101606168731EE268B1FA81F195
:1017C000B3FA83F349095B09B2F5006F41EA0301FB
:1017D00027D139B1216B0988C160B81C2063E08E24
:1017E0000138E086E08E002841D06E1C0AE000BF80
:1017F000216B31F8022BC2602163E08E0138E08654
:10180000E08EA0B3206881688907F1D4FFF7B4F9AE
:10181000002EF5D0A0EB0800A842F1D325E002206D
:101820003CE039B139780173206B01302063E08EE0
:101830000138E086E08ED0B16E1C0AE0216B097899
:101840000173206B01302063E08E0138E086E08E6A
:1018500068B1206881688907F0D4FFF78DF9002E00
:10186000F5D0A0EB0800A842F1D3032016E02046F3
:101870002946424600F0CAFF00281CBF20206065B0
:10188000A06838B9002000902068C1680091806885
:1018900000900098606D002818BF0120002184F896
:1018A000519084F8501001B0BDE8F0832DE9F04369
:1018B00081B0044690F85000012803D1022001B005
:1018C000BDE8F08301201E4615460F4684F85000FF
:1018D000FFF752F994F85110814601290CD0606845
:1018E000B0F5827F76D104294FF0020040F0C68027
:1018F000A168002940F0C280002F4FF0010018BFFE
:10190000002D00F0BB80002E00F0B88094F851004C
:10191000002104281CBF052084F851006165A563DF
:10192000E687A6872763E6862068A6862164616429
:101930000168490603D4016841F040010160616813
:10194000731EE268B1FA81F1B3FA83F3DDF8208007
:1019500049095B09B2F5006F41EA03013CD139B195
:10196000216B0988C160B81C2063E08E0138E086D5
:10197000012608F1010500BFE08E10B9E08F0028B4
:1019800066D02068816889070CD5E18E012E09D1C7
:1019900041B1216B002631F8022BC2602163E18E38
:1019A0000139E1868168C9070AD0E18F41B1C06879
:1019B000A16B012621F8020BA163E08F0138E087BB
:1019C000FFF7DAF8002DD7D0A0EB09004045D3D3BC
:1019D000032053E0022051E039B139780173206BC4
:1019E00001302063E08E0138E086012608F1010510
:1019F000E08E08B9E08F58B32068816889070DD55B
:101A0000E18E012E0AD149B1216B002609780173BC
:101A1000206B01302063E08E0138E0862068816809
:101A2000C9070BD0E18F49B1C068A16B01260870CE
:101A3000A06B0130A063E08F0138E087FFF79CF8CE
:101A4000002DD5D0A0EB09004045D1D3032015E0EF
:101A5000204641464A4600F0D9FE18B12020606574
:101A600001200BE0A06800284FF0000006D1009094
:101A70002168CA680092896800910099012184F860
:101A80005110002184F8501001B0BDE8F08300002F
:101A900080B500F057FF80BD80B586B044F20001EC
:101AA0000068C4F20101002288420592CDE90322B8
:101AB0000292019201D006B080BD43F63000009240
:101AC000C4F20200036843F001030360006800F001
:101AD000010000900098082001900220CDE9020248
:101AE0000320059001F5404001A90492FEF76AFF2A
:101AF00006B080BDB0B5044690F83C00012804BF94
:101B00000220B0BD0D464FEAB2010120032984F83E
:101B10003C0037D8DFE801F0020A1222206829468B
:101B200001F008F8206850F8181F0EE020682946D8
:101B300001F030F8206850F8181F16E02068294698
:101B400001F05AF8206850F81C1F41F008010160AC
:101B5000016821F00401016029690FE0206829462D
:101B600001F07CF8206850F81C1F41F4006101600E
:101B7000016821F48061016029690902026811434A
:101B800001600020002184F83C10B0BD002804BF93
:101B90000120704710B5044690F83D0028B9002098
:101BA00084F83C00204600F01FF8022084F83D0035
:101BB0002068211D00F03EFF012084F8460084F8D3
:101BC0003E0084F83F0084F8400084F8410084F827
:101BD000420084F8430084F8440084F8450084F807
:101BE0003D00002010BD000081B0006844F20001FB
:101BF000C4F20101884201D001B07047002000907A
:101C000043F64400C4F20200016841F480310160EF
:101C1000006800F480300090009801B07047000028
:101C2000B0B5044641B1082909D0042914BF04F114
:101C3000410004F13F0004E004F13E0001E004F142
:101C40004000007801281CBF0120B0BD022041B136
:101C5000082909D0042914BF84F8410084F83F0002
:101C600004E084F83E0001E084F840002068442548
:101C70000122C4F2010500F04BFF2068A5F14401E8
:101C8000884203D1296841F40041296040F6FF31C0
:101C9000C4F2000188420FDCB0F1804F1DD040F249
:101CA0000041C4F20001884217D040F60001C4F29E
:101CB0000001884211D017E040F60041C4F2000153
:101CC00088420AD044F20001C4F20101884204D0E3
:101CD0000021C4F20101884206D1816801F00701A8
:101CE000062904BF0020B0BD016841F00101016078
:101CF0000020B0BDFEE700002DE9F04395B001AA39
:101D0000010A023A282300BF02F8021F013B50706B
:101D1000FAD140F2B817C2F2000738887988013842
:101D2000013940F2000882B28BB200200021C4F2D7
:101D3000020800F07BF9404610210022FEF716FF52
:101D400008F5806001210122FEF710FF7888E0B1DC
:101D500040F2C0054FF00009C2F2000501AE04E0F8
:101D6000788809F1010981450FD238880028F7D019
:101D7000002400BF28463146502264232834FFF750
:101D8000D7FC38888442F5D3EAE740461021012287
:101D9000FEF7ECFE15B0BDE8F08300002DE9F04F32
:101DA00087B0CDE90201DDE902BA1C46154602FB07
:101DB00002F04FF0FF390190CDF8189009F10109B8
:101DC000AAEB0901ABEB05008FB280B2394622467F
:101DD000059000F091F805EB0B0086B230463946CD
:101DE000224600F089F8ABEB090005EB0A0187B247
:101DF00089B238462246049100F07EF8AAEB05002D
:101E00001FFA80F838464146224600F075F809EB83
:101E10000A0087B230463946224600F06DF809EBD9
:101E20000B0086B230464146224600F065F8049920
:101E30003046224600F060F805983946224600F008
:101E40005BF8069805FB05F1023000FB00100199D4
:101E5000884288BF013DA945AEDB07B0BDE8F08FE1
:101E60002DE9F04F83B00C46111A0546A3EB040090
:101E70008B460B4618BF4FF0FF3B48BF4B42002933
:101E80000146C8BF4FF0010B002818BF4FF0FF31CB
:101E9000029044BF474202970028C8BF0121029820
:101EA0004FF0000A4FF000094FF000088342C8BF0E
:101EB000184601900C9AA8B20F46A1B21E4600F037
:101EC0001BF8334609EB06000299019E5144B0EB22
:101ED000060908F10108D4BF81465D44B1EB060A4A
:101EE0001FFA88F0D8BF8A463946C8BF3C448642AC
:101EF000E0DA03B0BDE8F08F10B5144602460B4699
:101F000000F094F8204600F065FA10BD2DE9F0438A
:101F100081B00E468146501E591E9846154682B223
:101F20008BB24846314600F081F8464512D2089CF3
:101F300004E000BF0136B0B240450BD2A945F9D24A
:101F40004F4600BF204600F045FA0137B8B2A8421C
:101F5000F8D3EFE701B0BDE8F083000070B582B0C0
:101F600000240020C4F202040190042004F58065DE
:101F70008DF80300284601210022FEF7F7FD2046D8
:101F800010210022FEF7F2FD40F2C006C2F2000668
:101F90000DF10301304601226423FFF7C9FB2846F7
:101FA00001210122FEF7E2FD01A93046032264234C
:101FB000FFF716FB204610210122FEF7D7FD0198FE
:101FC00002B070BD80B500F01BF8112000F0DEF902
:101FD0007820FEF7E3FCFFF7C1FF40F2B811C2F230
:101FE0000001486010B101F037FD01E001F042FC52
:101FF000002000F027FA0020FFF77EFE80BD0000E1
:1020000010B540F20044C4F202042046022100222E
:10201000FEF7ACFD6420FEF7C1FC20460221012240
:10202000FEF7A4FD3220FEF7B9FC10BD2DE9F0410A
:1020300040F2B818C2F200080D4698F80C10074696
:1020400008461C46164600F0A1F9380A00F07AF955
:10205000F8B200F077F9300A00F074F9F0B200F04D
:1020600071F998F80E0000F091F9280A00F06AF969
:10207000E8B200F067F9200A00F064F9E0B200F07D
:1020800061F900F0CDF9BDE8F08100002DE9F04FD5
:1020900087B0DDF8448081464FEA58074FEA1810B0
:1020A0001C46924601237A0718BF03EB181000FB69
:1020B00008F609EB580001EB08020138531E82B202
:1020C0009BB248460D460691FFF7B0FF002E0496DE
:1020D00000F08280A8F10C01CAB2890141EA9201A4
:1020E000AAF12000CBB244F25C71C2B2C0F600018A
:1020F00001EB0211019145F61C71129DC0F6000121
:102100000020029201EB82114E4600224FF0000A9D
:102110000091039309E04FF0000A00BF059A04996B
:102120000132039B90B2814256D9052B54D80592B7
:10213000DFE803F0030E5210521A029944F2E8222B
:1021400001EB4101C0F6000202EB81010DE000BF8E
:1021500001990AE0029944F64C5201EB4101C0F6A4
:10216000000202EB011100E00099084490F800B071
:102170004FF0000817E000BF10EA0B0F204610993F
:1021800008BF084600F026F90AF1010A5FFA8AF052
:10219000B0FBF7F101FB17000028BCD008F10108E3
:1021A000B8F1080FBAD00120002D00FA08F0E3D0F2
:1021B00010EA0B0F05D00699B0B289B22246FFF79C
:1021C0009BFE0136B0B2A0EB0900B842E6D10698FA
:1021D0004E4601300690A1E707B0BDE8F08F000041
:1021E0002DE9F04F87B0002BCDE905124FD00746FF
:1021F00012981C464508581E4FF000084FF0000981
:102200004FF0000A4FF0000B049018E04FF0010B64
:1022100040F03002119808EB070100901298D2B2FA
:10222000019088B20599109B00260296FFF72EFFB9
:1022300009F101090AF1010A4C45A84427D06FEAC7
:102240000A002044C1B20A2001F02EFE0699BBF11B
:10225000000FB1FBF0F04CF6CD41CCF6CC41A0FB29
:1022600001124FEAD20101EB8101A0EB4100CFD175
:1022700004994945CCDD0028C8D1119908EB070025
:102280000091129980B2019105992022CBE707B005
:10229000BDE8F08F2DE9F0479946904602440B4483
:1022A000013A013B92B29BB2FFF7C0FEB8F1000FBA
:1022B00008BFBDE8F087089E00274FF0000A05E040
:1022C0000AF1010A1FFA8AF0404514D2B9F1000F51
:1022D000F6D007EB090400BF16F8170006EB470518
:1022E00000F030F8687800F02DF80137B8B2A1B2EC
:1022F0008142F1D1E4E7BDE8F08700002DE9F04F1D
:1023000083B09B461378CBB1DDE90C9ADDF83880B9
:102310000D4606464FEA5A07541E00BFB0B2DAB265
:1023200029465B46CDE9009ACDF80880FFF7AEFE5E
:10233000A3783E44002B04F10104EFD103B0BDE8C3
:10234000F08F000010B582B00024C4F202048DF8B2
:10235000070004F5806001210122FEF707FC2046FA
:1023600010210022FEF702FC40F2C000C2F2000081
:102370000DF1070101226423FFF7DAF9204610214D
:102380000122FEF7F3FB02B010BD000010B582B0D1
:102390000024C4F202048DF8070004F580600121D6
:1023A0000022FEF7E3FB204610210022FEF7DEFBB1
:1023B00040F2C000C2F200000DF1070101226423C7
:1023C000FFF7B6F9204610210122FEF7CFFB02B03D
:1023D00010BD0000B0B582B00024C4F2020405466E
:1023E000204610210022FEF7C1FB04F58060012188
:1023F0000122FEF7BBFB68BAADF8060040F2C00050
:10240000C2F200000DF1060102226423FFF790F9E9
:10241000204610210122FEF7A9FB02B0B0BD00004A
:1024200080B540F2B810C2F20000807AFFF7AEFF2C
:1024300080BD000010B50C46FFF7A8FFE0B2FFF723
:1024400081FF10BD80B540F2B81CC2F2000C2B21F8
:10245000ACF80E102C21C0F22A010328CCF80A1087
:1024600088BF80BD08214FF4A07EF022DFE800F095
:102470000E020409682105E0C8214FF4A07EF02275
:1024800004E0A8214FF0F00E4FF4A0723620ACF813
:102490000020ACF802E0FFF7CDFF80BD80B582B030
:1024A0000020019043F63000C4F2020001680022CF
:1024B00041F4800101600068002100F48000019077
:1024C00001983A20FEF7D0FB3A20FEF7C9FB02B094
:1024D00080BD00002DE9F04186B0002743F63000B2
:1024E0000597CDE90377CDE901770097C4F20200A3
:1024F000016840F2004441F0040101600168C4F247
:10250000020401F004010091009900970168A4F50C
:10251000806541F0800101600168012201F08001C5
:102520000091009900970168102641F001010160B7
:1025300001684FF0010801F0010100910099009736
:10254000016841F0020101600068102100F0020002
:10255000009000982846FEF709FB204641F2010151
:102560000122FEF703FB204602210022FEF7FEFABD
:10257000CDE9016801AE28463146CDE90377FEF783
:1025800021FA41F20300CDE9010820463146CDE9A8
:102590000377FEF717FA40F2044001904FF48810D9
:1025A000CDE9020720463146FEF70CFA06B0BDE839
:1025B000F081000080B540F2A00042F60001C2F2B6
:1025C0000000C4F2000100227F234FF0FF0C80E8DE
:1025D0000E10C0E904228261FEF798FE002818BFA1
:1025E000FEF7A8F880BD000080B540F2C00043F2BD
:1025F0000001C2F20000C4F201014FF48272002314
:1026000080E80E0000F114014FF4007C4FF0080E3A
:1026100081E808500A21C0E90333C0E90833C0E962
:102620000A31FEF7F7FE002818BFFEF783F880BDD9
:1026300080B540F2181043F60001C2F20000C4F267
:1026400000014FF48272002380E80E0000F11401B3
:102650004FF4007C4FF0200E81E808500A21C0E9B9
:102660000333C0E90833C0E90A31FEF7D3FE00287E
:1026700018BFFEF75FF880BD10B588B040F270104B
:1026800044F200010024C2F20000C4F201016323FD
:102690000794CDE90544CDE90344CDE90144312255
:1026A00080E81600C0E903348461FFF76FFA002860
:1026B00018BFFEF73FF86020CDE9010440F270102A
:1026C000C2F2000001A9042203940594FFF712FA54
:1026D000002818BFFEF72EF840F27010C2F200007A
:1026E000FFF7DAF908B010BDFEE70000FEE70000D2
:1026F00000F0070080F00703042B28BF04234FF0ED
:10270000FF3C03380CFA03F338BF002099438140A3
:102710000CFA00F022EA00000843704770470000FE
:10272000F0B581B004460068C16849061CD4C16890
:1027300041F08001C160FEF71FFA2168C9684906AF
:1027400014D4054600260427FEF716FA401BB0F500
:102750007A7F84BF677701262068012EC06806D083
:1027600010F04000F0D002E0002600E00026F0B2B9
:1027700001B0F0BD10B504460068C16821F08001C9
:10278000C1608068800607D42046FEF72BFE18B192
:1027900004206077012010BD002010BD10B5044654
:1027A00040689446B0F5827F0A461AD1A168B1F517
:1027B000004F02D0B1F5806F04D121680B6823F07F
:1027C00040030B60B0F5827F0BD1A068B0F5806F3D
:1027D00013D120460121634600F04AF838B90020A1
:1027E00010BD20460121634600F042F860B1606DE3
:1027F00040F020006065032010BD20468021634624
:1028000000F036F80028F2D1002010BD10B582B0DB
:1028100040F20803C2F200031B6849F68174C1F25A
:102820005E64A3FB043C04464FEA5C504FF47A73A9
:10283000584301906068B0F5827F0DD113460A4677
:102840002046802100F014F878B1606D40F020003F
:102850006065032002B010BD019830B101980138C5
:102860000190206880680006F6D4002002B010BDF8
:102870002DE9F04381B01E4690460D468146FEF795
:102880007BF9301A00EB0807FEF776F940F20801F1
:10289000C2F200010968C1F3CB3179430091D9F844
:1028A000001089682940A94219D1064608F101049F
:1028B00006E000BFD9F8000080682840A8420ED189
:1028C000002CF7D0FEF758F9801BB8420BD20098C5
:1028D0000099002808BF0746481E0090EAE700203C
:1028E00001B0BDE8F083D9E900014268B1F5827F0B
:1028F00022F0E00242600BD1D9F80810B1F5004F88
:1029000002D0B1F5806F03D1016821F04001016070
:10291000D9F82810B1F5005F07D1016821F4005102
:102920000160016841F400510160012089F8510003
:10293000002089F85000032001B0BDE8F0830000BA
:1029400070470000B0B501380024B4EB106F1CBF15
:102950000120B0BD4EF21005CEF2000568604FF0C8
:10296000FF300F2100F064FF0720AC602860204694
:10297000B0BD000080B5FEF705F980BD70B592B01E
:1029800006AC20463021FDF75BFC002543F64000F5
:102990000595CDE90355CDE901550095C4F2020036
:1029A0000168022641F080510160006800F080500B
:1029B0000090009847F200000095C4F20000016802
:1029C00041F440410160006800F4404000900098EC
:1029D000052006904FF480300790012008904FF4B6
:1029E00080000D900C200E906020CDE90F06042091
:1029F000119020460C96FEF7E5FA78B90F20CDE944
:102A000001064FF48050CDE9040501A80321039588
:102A1000FEF7EEF9002804BF12B070BDFDF78AFE84
:102A20004EF68850CEF20000016841F4700101605A
:102A30007047000010B540F2FF7E0368C4F2000E3C
:102A400040F2000C7045C4F2010C0ADD40F60002B1
:102A5000C4F2000290420DD060450BD040F6004217
:102A600004E0B0F1804F05D040F20042C4F2000211
:102A7000904203D14A6823F0700313434FF6FF726C
:102A8000C4F20002904209DC704512DCB0F1804FC4
:102A900026D040F20042C4F200021FE044F2FF32AE
:102AA000C4F2010290420FDC604519D044F20002EA
:102AB00012E040F60002C4F20002904210D040F64C
:102AC0000042C4F2000209E044F60002C4F201022E
:102AD000904205D044F20042C4F20102904203D178
:102AE000CA6823F44073134323F080024B69D1F882
:102AF00000E08C681A4360450260C462C0F828E0B8
:102B000002D10969CCF830100121416110BD0000EB
:102B100080B501F01F014FF0010CD0F820E00CFA55
:102B200001F32EEA03030362036A02FA01F1194377
:102B3000016280BDB0B5026A002422F00102026287
:102B4000026AD0F804E0D0F818C08B6822F00202C4
:102B5000C4F20104A04242EA030205D1CB6822F08C
:102B60000C0223F004031A430B68A04207D1D1E9F9
:102B700005452EF4407E44EA0E0444EA050E2CF08E
:102B800073052B43C0F804E0836149684163026226
:102B9000B0BD0000B0B5026A002422F0100202624B
:102BA000026AD0F804E0D0F818C08B6822F0200246
:102BB000C4F20104A04242EA031207D1CB686FF0CD
:102BC000400522F0C00205EA03131A430B68A04235
:102BD00007D1D1E905452EF4406E4EEA840444EA5B
:102BE000850E2CF4E64545EA0323C0F804E0836132
:102BF000496881630262B0BDB0B5026A002422F464
:102C000080720262026AD0F804E0D0F81CC08B68BF
:102C100022F40072C4F20104A04242EA032207D166
:102C2000CB6840F2FF451B0222F44062AB431A43DB
:102C30000B68A04207D1D1E905452EF4405E4EEA6B
:102C4000041444EA051E2CF073052B43C0F804E07D
:102C5000C3614968C1630262B0BD0000B0B5026AD9
:102C6000002522F480520262026A4368D0F81CE018
:102C70000C68D1F808C0C4F20105A84204D14D691E
:102C800023F4804343EA85132EF4E64545EA042500
:102C90004360C56122F40052496842EA0C32016483
:102CA0000262B0BD2DE9F04F83B01D4616460F46B7
:102CB000804601244FF010094FF6FF7A5DA22820CC
:102CC0008C214FF47843CDE900A902944FF4784B5E
:102CD000FFF714FB58A278208C214FF47843CDE9FC
:102CE00000A90294FFF70AFB54A22820A0214FF468
:102CF0007843CDE900A90294FFF700FB50A27820A9
:102D0000A0214FF47843CDE900A90294FFF7F6FA29
:102D10004CA22820B4214FF47843CDE900A90294B5
:102D2000FFF7ECFA48A27820B4214FF47843CDE9BC
:102D300000A90294FFF7E2FA44A22820C8214FF428
:102D40007843CDE900A90294FFF7D8FA40A2782091
:102D5000C8214FF47843CDE900A90294FFF7CEFAD9
:102D60003CA22820DC214FF47843CDF800A0029447
:102D7000CDF80490FFF7C2FA40208C21424604238C
:102D8000CDE900BACDF80890FFF72AFA90208C21FF
:102D90003A460423CDE900BACDF80890FFF720FAAF
:102DA0004020A02132460423CDE900BACDF8089096
:102DB000FFF716FA9020A0212A460423CDE900BA95
:102DC000CDF80890FFF70CFA0C9A4020B4210423A8
:102DD000CDE900BACDF80890FFF702FA0D9A9020DD
:102DE000B4210423CDE900BACDF80890FFF7F8F933
:102DF0000E9A4020C8210423CDE900BACDF80890EE
:102E0000FFF7EEF90F9A9020C8210423CDE900BA0C
:102E1000CDF80890FFF7E4F9109A6020DC21032335
:102E2000CDE900BACDF80890FFF7DAF903B0BDE8B4
:102E3000F08F00BF78313A0079313A0078323A00A9
:102E400079323A0078333A0079333A0078343A00EC
:102E500079343A006661632069733A00000000002B
:102E60002DE9F04F81B02DED0A8B92B04FF6FF7037
:102E70004FF6FF75FEF740FF4FF6FF70FEF73CFF81
:102E8000012610270FF2E0520A2028210023CDE965
:102E9000005702960024FFF731FA0FF2E8520A2099
:102EA00038210023CDE900570296FFF727FA0FF2E9
:102EB000F0520A2048210023CDE900570296FFF77F
:102EC0001DFA0FF2F8520A2058210023CDE90057CD
:102ED0000296FFF713FA0FF200620A20682100231E
:102EE000CDE900570296FFF709FA142014214FF498
:102EF000784200F003FB40F20C0B40F2B81A9FED51
:102F0000368B9FED379B9FED38ABC2F2000B0EAEB8
:102F1000C2F2000AB6EE00BAB0EE00CA8BF8144056
:102F2000CBF818407BE24FF4784200F0E7FA002437
:102F30000A20FDF733FD0134A0B2B0F57A7F00F22C
:102F40008C82DBF80410012088479BF8140000F005
:102F5000C0014029ECD100F0BF008BF81400DBF871
:102F60001010E8B2032805F1010546F82010DED85C
:102F7000DFE800F0020E1D3E142014214FF6FF7210
:102F800000F0BCFABAF800001421143880B2CAE785
:102F9000BAF800001421143880B24FF6FF7200F026
:102FA000ADFABAF80200143881B21420BBE7BAF8BF
:102FB00002004FF6FF72143881B2142000F09EFA1E
:102FC000BAF80000BAF802101438143980B289B285
:102FD000A9E700BF00BF00BF00000000000059408B
:102FE000666666666666EE3FCDCCCCCCCCCCF03F58
:102FF000BDF83800BDF83C70BDF83A10BDF83E2071
:103000000D90C01B0891891A404301FB01000B92EF
:10301000FDF7C9F941EC100B00F066FF51EC100B05
:10302000FDF7CEF9BDF84080BDF84410BDF8423040
:10303000BDF846600A91A8EB01019A1B494302FBC7
:103040000211044608460C930996FDF7ACF941ECD1
:10305000100B00F049FF51EC100BFDF7B1F90546DC
:1030600000EE104A01EE105AB8EE400AB8EE411ACE
:1030700080EE010A10EE100AFDF7C1F98146002D1D
:103080008A4618BF002C00F09B8155EC196B48460E
:10309000514632462B46FDF76BF9002840F09081EF
:1030A00053EC1A2B48465146CDE90523FDF745F967
:1030B000002800F085810D98DDF820900C99A0EB98
:1030C0000800A9EB0101404301FB0100FDF76BF98A
:1030D00041EC100B00F008FF51EC100BFDF770F9FC
:1030E0000A990B9A099B791AD21A494302FB0211D9
:1030F000044608460797FDF756F941EC100B00F01F
:10310000F3FE51EC100BFDF75BF900EE104A01EEF7
:10311000100AB8EE400AB8EE411A80EE010A10EE2D
:10312000100AFDF76CF932462B4607460C46FDF7B0
:103130001FF9002840F0EF80DDE9052338462146DD
:10314000FDF7FBF8002800F0E6800798DDE90B1298
:10315000A0EB0800891A404301FB0100FDF723F9A9
:1031600041EC100B00F0C0FE51EC100BFDF728F9FC
:103170000D990A9A0446891A099A4943A9EB020251
:1031800002FB02110846FDF70EF941EC100B00F0AE
:10319000ABFE51EC100BFDF713F900EE104A01EEF7
:1031A000100AB8EE400AB8EE411A80EE010A10EE9D
:1031B000100AFDF724F940F2B81AC2F2000ABAF870
:1031C000009032462B4604460F46FDF7D1F8002802
:1031D00040F0C780DDE9052320463946FDF7ADF80C
:1031E000002800F0BE80079A0D9FA9F1280000EE8C
:1031F000100AD01B01EE100AB8EEC00AB8EEC11AD0
:1032000080EE011ABAF80200089B0C9EA0F128017A
:1032100000EE101AF11A02EE101AB8EEC00AB8EE5B
:10322000C22A80EE020AD11903EE101A02EE109A99
:10323000B8EEC33AB8EE422A21EE033A32EE432A00
:1032400022EE0B2ABDEEC22A12EE101AABF82010A5
:10325000F11803EE101A02EE100AB8EEC33AB8EEF7
:10326000422A20EE033A32EE432A8BED061A22EE72
:103270000B2AB0EEC11ABDEEC22AB4EE4C1A12EE01
:10328000101AF1EE10FA8BED070AABF8221007DCEA
:10329000B0EEC00AB4EE4C0AF1EE10FA40F3C18071
:1032A000A9F11401A0F1140288B291B24FF6FF7295
:1032B00000F024F9142014214FF4784200F01EF994
:1032C0004FF6FF70009010200190012002902820FE
:1032D0001A2185A200230024FFF710F89BF8240090
:1032E00040F20402B0FA80F1490900286FF02F0083
:1032F0008BF8241008BF6FF06F006FF06F01C2F2FF
:10330000000208BF6FF02F01107040F20500C2F2FA
:103310000000017050E040F2B81AC2F2000ABAF898
:103320000000BAF802101438143980B289B24FF68E
:10333000FF7200F0E3F8142014214FF4784200F0FB
:10334000DDF853EC182B38462146FCF784FFFDF7D7
:1033500037F807460C98CDF8008001900A98494646
:1033600020E0BAF80200A9F11401A0F1140288B219
:1033700091B24FF6FF7200F0C1F8142014214FF4FF
:10338000784200F0BBF853EC182B20463946FCF786
:1033900062FFFDF715F807460C98089901900A9806
:1033A000CDF800800290099803900D98079A0B9B26
:1033B0000497FFF777FC002400250EAEC1E500BF9F
:1033C00040F2B814C2F2000420886188143814391D
:1033D00080B289B24FF6FF7200F090F814201421E9
:1033E0004FF4784200F08AF853EC182B48465146C7
:1033F000A246FCF730FFFCF7E3FF3A4607460C987D
:10340000089901900A980B9B02900998CDF80080CA
:1034100003900D9804970EAEFFF744FC002400259E
:103420008FE54FF6FF70FEF767FC10204FF6FF7137
:103430004CF205220127CDE90010C0F6000223203E
:103440006E211F230297FEF759FF4FF47A70FDF7A4
:10345000A5FA4FF6FF70FEF74FFC12B0BDEC0A8BD9
:1034600001B0BDE8F08F00BF506C656173652075D9
:10347000736520746865207374796C757320636C50
:1034800069636B007468652063726F7373206F6E7D
:10349000207468652073637265656E2E00000000FD
:1034A0005468652063726F73732077696C6C206158
:1034B0006C77617973206D6F76650000756E746945
:1034C0006C207468652073637265656E2061646A40
:1034D0007573746D656E7400697320636F6D706CC5
:1034E000657465642E0000005450204E65656420AC
:1034F000726561646A757374210000002DE9F04300
:1035000081B006460D460C3806F10D01144680B216
:103510008AB229462B460094FEF7A2FCA5F10C00C6
:1035200005F10D0281B293B2304632460094FEF7A7
:1035300097FC701C691C1FFA80F88FB24046394610
:103540002246FEF7D9FC701E1FFA80F9484639461C
:103550002246FEF7D1FC681E87B240463946224615
:10356000FEF7CAFC484639462246FEF7C5FC3046FF
:10357000294606222346FEF711FC01B0BDE8F08380
:1035800080B540F20C01C2F2000101F110001231CD
:1035900000F082F8FFF764FC012080BD70B584B0B4
:1035A00040F200448DF80F000020C4F20204ADF890
:1035B0000B0020464FF480510022FDF7D7FA40F26D
:1035C0001815C2F200050DF10F01284601220A2349
:1035D0000A26FEF7ADF8FDF78DF80DF10B010DF1A0
:1035E0000D02284602230096FEF760F920464FF4AC
:1035F00080510122FDF7BAFABDF80D0000BAC0F300
:10360000CB4004B070BD000080B5E62000F002F8A9
:1036100080BD000070B584B004466FF001060DF166
:10362000060500BF2046FFF7B9FFA9190236082E8C
:103630004880F7D1A81C00214A1C0B4635F81160C0
:1036400030F81340A64284BF25F8114020F81360DB
:103650000133042BF2D1042A1146EDD100226FF080
:10366000010100BF43185B8802311A44042992B259
:10367000F8D14AF6AB20CAF6AA20A2FB00014808FE
:1036800004B070BD80B5A620FFF7C4FF42F21071F0
:103690004843000B80BD000070B50C4640F20401A9
:1036A000C2F20001097805460846FFF7B3FF40F271
:1036B0000501C2F20001097806460846FFF7AAFF95
:1036C000014601202E80218070BD000070B582B0BF
:1036D0000E4605460DF1060001A9FFF7DDFF0DF1CD
:1036E00002006946FFF7D8FFBDF80200BDF80610DA
:1036F000884203D800F132028A4205D881421CD8A0
:1037000001F13202824218D9BDF80020BDF8043020
:103710009A4203D802F132049C4205D893420CD855
:1037200003F13204944208D90844400828809818CC
:1037300040083080012002B070BD002002B070BD92
:10374000B0B5044640F20040C4F202004FF480617C
:10375000FDF706FA40F20C05C2F2000550B195F9EA
:103760001400B0F1FF3F42DD00204FF0FF31C5E90A
:1037700003013FE005F1100005F11201FFF7A6FF7C
:1037800064BB58B3288A95ED061A00EE100AB5F905
:103790002000B8EE400A21EE000A01EE100AB8EE51
:1037A000C11A30EE010ABDEEC00A10EE100A2882DE
:1037B000688A95ED070A01EE100AB5F92200B8EE05
:1037C000411A20EE010A01EE100AB8EEC11A30EEDD
:1037D000010ABDEEC00A10EE100A688295F91400C5
:1037E000002807D42969C0202875E96002E000F0AC
:1037F0007F002875287D00F08000B0BDFEE7000046
:10380000002848BF704700F01F01012202FA01F1B1
:103810004EF200124009CEF2000242F8201070472A
:103820004EF60C50CEF200000068C0F30220704744
:103830004EF6145300F00F02CEF2000309011A44B1
:1038400000F16043B0F1FF3FC8BF03F5644211705F
:10385000704700004EF60C51CEF200010A684FF698
:10386000FF031A4060F30A2242F0806040F0FD70CE
:103870000860704780B5CF20FEF788FD0020FEF776
:1038800061FDD920FEF75EFD3020FEF75BFDED20E7
:10389000FEF77CFD6420FEF755FD0320FEF752FD88
:1038A0001220FEF74FFD8120FEF74CFDE820FEF7C9
:1038B0006DFD8520FEF746FD1020FEF743FD7820C4
:1038C000FEF740FDCB20FEF761FD3920FEF73AFD03
:1038D0002C20FEF737FD0020FEF734FD3420FEF7E4
:1038E00031FD0220FEF72EFDF720FEF74FFD2020D0
:1038F000FEF728FDEA20FEF749FD0020FEF722FD35
:103900000020FEF71FFDC020FEF740FD2120FEF73E
:1039100019FDC120FEF73AFD1220FEF713FDC52068
:10392000FEF734FD3220FEF70DFD3C20FEF70AFDC8
:10393000C720FEF72BFDC120FEF704FD3620FEF761
:1039400025FDA820FEF7FEFC3A20FEF71FFD5520BE
:10395000FEF7F8FCB120FEF719FD0020FEF7F2FC9F
:103960001820FEF7EFFCB620FEF710FD0A20FEF748
:10397000E9FCA220FEF7E6FCF220FEF707FD00209E
:10398000FEF7E0FC2620FEF701FD0120FEF7DAFC41
:10399000E020FEF7FBFC0F20FEF7D4FC2020FEF712
:1039A000D1FC1E20FEF7CEFC0920FEF7CBFC122036
:1039B000FEF7C8FC0B20FEF7C5FC5020FEF7C2FC4A
:1039C000BA20FEF7BFFC4420FEF7BCFC0920FEF73E
:1039D000B9FC1420FEF7B6FC0520FEF7B3FC23204B
:1039E000FEF7B0FC2120FEF7ADFC0020FEF7AAFC9C
:1039F000E120FEF7CBFC0020FEF7A4FC1920FEF727
:103A0000A1FC1920FEF79EFC0020FEF79BFC122073
:103A1000FEF798FC0720FEF795FC2D20FEF792FCA0
:103A20002820FEF78FFC3F20FEF78CFC0220FEF7DB
:103A300089FC0A20FEF786FC0820FEF783FC25207F
:103A4000FEF780FC2D20FEF77DFC0F20FEF77AFCB0
:103A50002920FEF79BFC80BD80B5B220FEF796FCC6
:103A60000C20FEF76FFC0C20FEF76CFC0020FEF72C
:103A700069FC3320FEF766FC3320FEF763FCB720B9
:103A8000FEF784FC3520FEF75DFCBB20FEF77EFCD4
:103A90003520FEF757FCC020FEF778FC0C20FEF71F
:103AA00051FCC220FEF772FC0120FEF74BFCC32044
:103AB000FEF76CFC1320FEF745FCC420FEF766FC05
:103AC0002020FEF73FFCC620FEF760FC0F20FEF72B
:103AD00039FCCA20FEF75AFC0F20FEF733FCC82041
:103AE000FEF754FC0820FEF72DFC5520FEF74EFC97
:103AF0009020FEF727FCD020FEF748FCA420FEF71C
:103B000021FCA120FEF71EFC3620FEF73FFC002022
:103B1000FEF718FC3A20FEF739FC0520FEF712FCF0
:103B2000E020FEF733FCD020FEF70CFC0020FEF76F
:103B300009FC0620FEF706FC0920FEF703FC0B201B
:103B4000FEF700FC2A20FEF7FDFB3C20FEF7FAFB07
:103B50005520FEF7F7FB4B20FEF7F4FB0820FEF79D
:103B6000F1FB1620FEF7EEFB1420FEF7EBFB19200D
:103B7000FEF7E8FB2020FEF7E5FBE120FEF706FC60
:103B8000D020FEF7DFFB0020FEF7DCFB0620FEF76F
:103B9000D9FB0920FEF7D6FB0B20FEF7D3FB29202B
:103BA000FEF7D0FB3620FEF7CDFB5420FEF7CAFB14
:103BB0004B20FEF7C7FB0D20FEF7C4FB1620FEF7D7
:103BC000C1FB1420FEF7BEFB2120FEF7BBFB20202B
:103BD000FEF7B8FB2920FEF7D9FB80BD90B04FF669
:103BE000FF78FCF7DDFFFEF7C9FEFEF773FCFEF77A
:103BF00055FCFEF7F9FCFEF71BFDFEF7DBFCFEF7BC
:103C00003BFDFCF755FDFEF7DDF96420FCF7C6FE31
:103C100040F27014C2F2000420460421FEF700F8BE
:103C200020681E2140F20C078163C2F20007386849
:103C3000804700200025FEF75FF847F2DC66C0F6FB
:103C4000000600200021F02228230096FEF722FB28
:103C500040F2B810C2F2000040684CF2DC114CF2A5
:103C6000F112C0F60001C0F60002002808BF0A46A3
:103C700010240A2028214FF47843CDE900540295FE
:103C8000FEF73CFB75A20A2038214FF4FC63CDE916
:103C900000540295FEF732FB3A203821F02203232C
:103CA000CDE900850294FEF79BFA6EA25A203821D6
:103CB0001F23CDE900540295FEF720FB8A2038210E
:103CC0004FF4A0720323CDE900850294FEF788FA31
:103CD000782400BFE8B2800050FA85F004EBC00100
:103CE0000020F02228230096FEF7D4FA042D05F1D7
:103CF0000105EFD34FF47A70FCF750FE4FF0000847
:103D000000207821F0224FF4A073CDF80080FEF758
:103D1000FDF80DF10E06102415E0AAEB00010529AF
:103D200028BFAAF10500824640F27010C2F20000DE
:103D30000068C0F838A0796800208847002009F1A1
:103D40000109FCF72BFE4CF6CD40CCF6CC40A9FB8C
:103D50000005A80800EB8000B9EB000044F6D35042
:103D6000C1F26200A9FB000B2AD197F91400B0F14F
:103D7000FF3F25DC3A8A7B8A30463CA100F0A0F860
:103D80000A20482132464FF6FF73CDE90084CDF872
:103D90000880FEF7B3FA40F2B811C2F20001388A87
:103DA000098888420CD240F2B812C2F20002798A25
:103DB0005288914204D24FF47842FEF79DF800BF3A
:103DC0004FEA5B104FF4FA7100FB119088B9FFF7CE
:103DD00059FC024630462AA100F072F80A20582108
:103DE00032464FF6FF73CDE90084CDF80880FEF728
:103DF00085FAA80900EB8000A9EB001000289AD1F1
:103E0000FFF702FC0546304622A12A4600F058F88A
:103E10000A20682132464FF6FF73CDE90084CDF8C1
:103E20000880FEF76BFA48F21F50C5F2EB10A5FBB5
:103E30000001480900EB4000552828BF5520C0F17B
:103E4000640082453FF669AFBFF46EAFA0EB0A0194
:103E5000052928BF0AF1050065E700BF4C43445F10
:103E6000573A00004C43445F483A0000546F756372
:103E70006820583A2535642C593A253564000000ED
:103E800056434320566F6C746167653A2534646D00
:103E9000560000004155582041442056616C75651C
:103EA0003A25346400000000002904BF0120704757
:103EB0000246012001390B0602FB00F0FAD17047DF
:103EC0000FB4084B10B504A902AA039800F05EF8DD
:103ED000044602A9002000F0FAF9204610BC5DF863
:103EE00014FB0000CF42000800B52DED048BB0EEAE
:103EF000409AF0EE609A83B051EC190BFCF724FB6A
:103F000041EC180B18EE100A18EE901A8DED008B8C
:103F1000002818BF0120084320F00040C0F17F6056
:103F200000F1E040C00F14D019EE101A19EE900AFB
:103F30008DED009B002918BF0121084320F00040AF
:103F4000C0F17F6000F1E040C00F04BF012000F02D
:103F500017F8B0EE480A03B0F0EE680ABDEC048B27
:103F600000BD02E008C8121F08C1002AFAD170473C
:103F70007047002001E001C1121F002AFBD17047E9
:103F80000149086070470000000000202DE9FF4F44
:103F90008BB088460546002606E025280BD0DDE9D3
:103FA0000D1290476D1C761C28780028F5D10FB0B3
:103FB0003046BDE8F08F0024A146A2460122AE495A
:103FC00000E0044315F8013F203B02FA03F00842E9
:103FD000F7D128782A2810D06FF02F022878A0F186
:103FE0003001092915D809EB890102EB410144F0A0
:103FF000020400EB01096D1CF0E758F8041B5FEAAE
:10400000010903D544F40054C9F1000944F0020445
:104010006D1C28782E2817D115F8010F44F00404E0
:104020002A280ED06FF02F022878A0F1300109293C
:104030000AD80AEB8A0102EB410100EB010A6D1C70
:10404000F2E758F804AB6D1C28786C280FD006DC1A
:104050004C2817D068280DD06A2814D104E07428A1
:1040600010D07A280FD10DE044F400140AE044F493
:10407000801401E044F440146978814202D104F5CF
:1040800080146D1C6D1C2878692865D006DC00281A
:104090008DD0632827D0642806D15DE06E2808D033
:1040A00073282AD0752877D0DDE90D129047761C49
:1040B000E0E0C4F30250022809D003280DD0D8F85C
:1040C000001004280DD00E6008F10408D2E0D8F8E2
:1040D0000010F217C1E90062F6E7D8F800100E8070
:1040E000F2E70E70F0E718F8041B8DF800100020BE
:1040F0008DF80100EB46012003E058F804BB4FF0B7
:10410000FF3061074FF0000701D40AE07F1C5745DC
:104110000DDA8742FADB1BF807100029F6D106E01A
:104120007F1C8742FCDB1BF807100029F8D1DDE972
:104130000D23A9EB07008146214600F0B1F8304479
:10414000C61904E0DDE90D121BF8010B90477F1E34
:10415000F8D22146484688E058F8040BC4F30251CF
:104160004FF00A0B032900D100B2042900D140B25C
:10417000002802DA40422D2102E0210505D52B213D
:104180008DF82410012104E006E0E10710D0202181
:10419000F6E708AF089113E058F8040BC4F3025196
:1041A0004FF00A0B032900D180B2042900D1C0B21C
:1041B0000021EEE75946FCF735F9303107F8011DCB
:1041C0000028F7D1ADEB070000F1200B600702D506
:1041D00024F4803401E04FF0010ADA4502DDAAEB55
:1041E0000B0000E00020824600EB0B010898014420
:1041F000A9EB01000A90E00306D4DDE90D23214676
:104200000A9800F04DF806444FF0000908E009A9AB
:1042100011F80900DDE90D12904709F10109761C3A
:1042200008998945F3DBE0030CD5DDE90D23214630
:104230000A9800F035F8064404E0DDE90D1230205C
:104240009047761CBAF10001AAF1010AF5DC05E0FD
:10425000DDE90D1217F8010B9047761CBBF1000148
:10426000ABF1010BF4DC0A982146DDE90D2300F0E7
:1042700005F806446D1C97E6092801002DE9F04178
:10428000044600251E461746880404D405E0394636
:104290002020B0476D1C641EF9D52846BDE8F0818A
:1042A0002DE9F041044600251E469046C80301D57D
:1042B000302700E02027880404D505E04146384631
:1042C000B0476D1C641EF9D52846BDE8F0810A6828
:1042D000531C0B60107070470000000000000000CD
:1042E00001020304060708090000000000000000A6
:1042F00000000000000004040404040000040000A6
:1043000014140A00000000000000000000000A0A67
:104310001F0A0A1F0A0A000000040E1505060C14E5
:10432000150E0400000012150D152E2C2A12000087
:104330000000040A0A3615152916000002020100C1
:104340000000000000000000100808040404040439
:104350000808100002040408080808080404020001
:1043600000000004150E0E150400000000000008F7
:10437000083E0808000000000000000000000000E7
:104380000202010000000000003F000000000000E9
:1043900000000000000000000002000000201010DB
:1043A000080804040202010000000E11111111118D
:1043B000110E00000000040604040404040E0000B2
:1043C00000000E1111080402011F000000000E1170
:1043D000100C1010110E00000000080C0C0A091F30
:1043E000081C000000001F01010F1110110E000039
:1043F00000000C12010D1311110E000000001E1020
:10440000080804040404000000000E11110E11112C
:10441000110E000000000E111119161009060000FF
:104420000000000004000000000400000000000084
:10443000000400000004040000001008040202044C
:1044400008100000000000003F003F0000000000D6
:1044500000000204081010080402000000000E1101
:10446000110804040004000000001C22292D2D1D49
:10447000221C0000000004040C0A0A1E1233000073
:1044800000000F12120E1212120F000000001E1177
:1044900001010101110E000000000F121212121290
:1044A000120F000000001F120A0E0A02121F000065
:1044B00000001F120A0E0A020207000000001C1270
:1044C00001013911120C000000003312121E1212E9
:1044D0001233000000001F0404040404041F000041
:1044E00000003E08080808080808090700003712FD
:1044F0000A060A1212370000000007020202020236
:10450000223F000000003B1B1B1B1515153500004A
:1045100000003B1216161A1A1217000000000E11A6
:1045200011111111110E000000000F12120E0202E3
:104530000207000000000E1111111117190E1800CA
:1045400000000F12120E0A121237000000001E1196
:1045500001060810110F000000001F1504040404D8
:10456000040E00000000331212121212120C00008E
:1045700000003312120A0A0C040400000000151592
:1045800015150E0A0A0A000000001B0A0A04040A94
:104590000A1B000000001B0A0A0A0404040E0000A3
:1045A00000001F0908040402121F00001C04040478
:1045B0000404040404041C000002020404040808A7
:1045C000081010000E0808080808080808080E005F
:1045D000040A0000000000000000000000000000CD
:1045E000000000000000003F020400000000000086
:1045F0000000000000000000000C121C123C000033
:1046000000030202020E1212120E0000000000004F
:10461000001C1202120C000000181010101C1212C4
:10462000123C000000000000000C121E021C0000E2
:1046300000182404041E0404041E000000000000EE
:10464000003C120C021C221C00030202020E121279
:10465000123700000004040000060404040E0000E9
:1046600000080800000C08080808080700030202F8
:10467000021A0A060A1300000007040404040404D2
:10468000041F000000000000000F151515150000A4
:1046900000000000000F121212370000000000009E
:1046A000000C1212120C000000000000000F121289
:1046B000120E020700000000001C1212121C10381B
:1046C00000000000001B06020207000000000000BE
:1046D000001E020C101E000000000004041E040452
:1046E000041C000000000000001B1212123C00001D
:1046F00000000000001B0A0A040400000000000083
:104700000015150E0A0A000000000000001B0A0434
:104710000A1B000000000000003312120C08040302
:1047200000000000001E0804041E0000180808080D
:10473000080C0808080818000808080808080808ED
:104740000808080806040404040804040404060015
:10475000160900000000000000000000000000003A
:104760000000000000000000000000000000000841
:1047700008080808080800001818000000486C2401
:1047800012000000000000000000000000000024F3
:1047900024247F1212127F12121200000000081C43
:1047A0002A2A0A0C1828282A2A1C08080000002295
:1047B000251515152A585454542200000000000CE9
:1047C0001212120A76252911916E000000060604C5
:1047D0000300000000000000000000000040201066
:1047E00010080808080808101020400000020408FB
:1047F000081010101010100808040200000000003B
:1048000008086B1C1C6B080800000000000000007A
:10481000080808087F0808080800000000000000D9
:104820000000000000000000060604030000000075
:1048300000000000FE00000000000000000000007A
:10484000000000000000000006060000000080409C
:104850004020201010080804040202000000001884
:104860002442424242424242241800000000000812
:104870000E08080808080808083E00000000003C70
:104880004242422020100804427E00000000003C0A
:104890004242201820404042221C0000000000201C
:1048A0003028242422227E20207800000000007E70
:1048B0000202021A26404042221C0000000000387A
:1048C0002402021A26424242241800000000007E00
:1048D0002222101008080808080800000000003C08
:1048E0004242422418244242423C00000000001888
:1048F0002442424264584040241C00000000000052
:104900000000181800000000181800000000000047
:10491000000000080000000000080804000000403B
:1049200020100804020408102040000000000000CD
:1049300000007F0000007F00000000000000000277
:104940000408102040201008040200000000003C71
:104950004242464020101000181800000000001CC1
:10496000225A555555552D42221C000000000008C2
:1049700008181414243C224242E700000000001FE3
:104980002222221E22424242221F00000000007CFE
:104990004242010101010142221C00000000001FEF
:1049A0002242424242424242221F00000000003F97
:1049B0004212121E12120242423F00000000003F4B
:1049C0004212121E12120202020700000000003CF6
:1049D0002222010101712122221C0000000000E7B7
:1049E000424242427E42424242E700000000003E14
:1049F0000808080808080808083E00000000007CB5
:104A000010101010101010101010110F000000776F
:104A100022120A0E0A12122222770000000000075A
:104A20000202020202020202427F0000000000773E
:104A3000363636362A2A2A2A2A6B0000000000E37E
:104A400046464A4A52525262624700000000001C29
:104A50002241414141414141221C00000000003FF0
:104A6000424242423E020202020700000000001CD5
:104A70002241414141414D53321C60000000003F42
:104A80004242423E1212222242C700000000007C35
:104A90004242020418204042423E00000000007FD3
:104AA0004908080808080808081C0000000000E77A
:104AB0004242424242424242423C0000000000E781
:104AC0004242222424141418080800000000006B3D
:104AD000494949495555362222220000000000E785
:104AE000422424181818242442E70000000000770C
:104AF0002222141408080808081C00000000007E88
:104B00002120101008040442423F000000780808E9
:104B100008080808080808080808780000000202C9
:104B2000040408080810102020204040001E101027
:104B3000101010101010101010101E00003844003B
:104B40000000000000000000000000000000000065
:104B50000000000000000000000000FF0006080048
:104B60000000000000000000000000000000000045
:104B70000000003C4278444242FC00000000000378
:104B80000202021A26424242261A000000000000D9
:104B900000000038440202024438000000000060B7
:104BA000404040784442424264D800000000000087
:104BB0000000003C427E0202423C0000000000F087
:104BC0008808087E08080808083E00000000000069
:104BD0000000007C22221C023C42423C00000003F8
:104BE0000202023A4642424242E700000000000C44
:104BF0000C00000E08080808083E00000000003005
:104C000030000038202020202020221E0000000339
:104C100002020272120A1612227700000000000E31
:104C20000808080808080808083E000000000000FE
:104C30000000007F9292929292B700000000000064
:104C40000000003B4642424242E7000000000000F4
:104C50000000003C42424242423C00000000000092
:104C60000000001B26424242221E020700000000F4
:104C70000000007844424242447840E000000000D6
:104C8000000000774C040404041F00000000000032
:104C90000000007C42023C40423E00000000000058
:104CA0000008083E0808080808300000000000005E
:104CB000000000634242424262DC0000000000004B
:104CC000000000E74224241408080000000000004F
:104CD000000000EB49495555222200000000000069
:104CE0000000007624181818246E00000000000050
:104CF000000000E742242414180808070000000000
:104D00000000007E22100808447E000000C0202021
:104D100020202010202020202020C0001010101063
:104D200010101010101010101010101000060808AD
:104D30000808081008080808080806000C32C20015
:104D40000000000000000000000000000000000063
:104D50000000000000000000000000000000000053
:104D60000000000000000000000000000000000043
:104D70000000000000000000000000000000000033
:104D800000000000600060006000600060006000E3
:104D90006000400020002000200000000000000013
:104DA00060006000600000000000000000000000E3
:104DB000600660063003980188004400000000008F
:104DC00000000000000000000000000000000000E3
:104DD00000000000000000000000000000000000D3
:104DE000000000001002100210021002FE07FE0771
:104DF00008020801080108010801FE07FE07040176
:104E00000401040104010000000000000000000093
:104E1000000040004000F00158034C03CC034C005C
:104E200058007000E000C001C00140034C035C0367
:104E30004C034801F000400040000000000000006A
:104E4000000000000E010A01910091009100510044
:104E500051003A00AE03A002500450044804480434
:104E600048048402840300000000000000000000E9
:104E70000000000038006C006C006C006C006C00DE
:104E80002C0098071C011A01330133016301E30070
:104E9000C308C6093C070000000000000000000035
:104EA0000C001C00100010000800040000000000AE
:104EB00000000000000000000000000000000000F2
:104EC00000000000000000000000000000000000E2
:104ED000000400020001800080004000400020002B
:104EE0002000200020002000200020004000400082
:104EF00080008000000100020004000000000000AB
:104F000002000400080010001000200020004000F3
:104F100040004000400040004000400020002000D1
:104F20001000100008000400020000000000000053
:104F300000000000000000004000C0004000460CDF
:104F40004E0FD001F0015E0F460C400040004000C3
:104F50000000000000000000000000000000000051
:104F60000000000000000000000040004000400081
:104F700040004000FE0F4000400040004000400064
:104F80000000000000000000000000000000000021
:104F90000000000000000000000000000000000011
:104FA0000000000000000000000000000000000001
:104FB0000C001C001000100008000400000000009D
:104FC00000000000000000000000000000000000E1
:104FD00000000000FE0700000000000000000000CC
:104FE00000000000000000000000000000000000C1
:104FF00000000000000000000000000000000000B1
:1050000000000000000000000000000000000000A0
:105010001C001C001C00000000000000000000003C
:10502000000400060002000300010001800080006F
:105030004000400060002000200010001000080028
:1050400008000C0004000600020000000000000040
:10505000000000000000F00098010C030C0306069D
:1050600006060606060606060606060606060C03DD
:105070000C039801F0000000000000000000000098
:1050800000000000000040007C0060006000600044
:105090006000600060006000600060006000600010
:1050A00060006000FC030000000000000000000041
:1050B000000000000000F80084010203060306035C
:1050C000000300018001C000600020001000080201
:1050D00004020602FE0300000000000000000000C1
:1050E0000000000000007800C600860186018001F3
:1050F0008001C0007000800100010003000306036E
:1051000006038601F8000000000000000000000017
:1051100000000000000080018001C001A001A0018A
:1051200090018801880184018201FE0F80018001C5
:1051300080018001E0070000000000000000000086
:10514000000000000000FC03040004000400040050
:105150000400F4008C0104030003000306030603AB
:1051600082018401F800000000000000000000003F
:10517000000000000000E00118030C030C00040014
:105180000600E60116030E060606060606060406D7
:105190000C021803F00000000000000000000000F6
:1051A000000000000000F8070C06040204010001E2
:1051B000000180008000400040004000600060006E
:1051C00060006000600000000000000000000000BF
:1051D000000000000000F8010C03060606060606A3
:1051E0000C021C03F000C8010C03060606060606A6
:1051F00006060C03F00100000000000000000000A3
:10520000000000000000F0000C010C03060206067E
:105210000606060606078C0678060006000300034D
:105220000C018C017800000000000000000000006C
:10523000000000000000000000000000000000006E
:10524000E000E000E00000000000000000000000BE
:10525000E000E000E00000000000000000000000AE
:10526000000000000000000000000000000000003E
:10527000600060000000000000000000000000006E
:1052800000006000600040002000200000000000DE
:105290000000000000040002000180004000200027
:1052A00010000800040008001000200040008000EA
:1052B00000010002000400000000000000000000E7
:1052C00000000000000000000000000000000000DE
:1052D000FE07000000000000FE07000000000000C4
:1052E00000000000000000000000000000000000BE
:1052F00000000000040008001000200040008000B2
:1053000000010002000400020001800040002000B3
:105310001000080004000000000000000000000071
:10532000000000000000E0031806040C040C0C0C44
:105330000C0C00078001400040004000000000000D
:10534000E000E000E00000000000000000000000BD
:1053500000000000E00018030C02CC05640566059F
:10536000A605B604B604B604B604B602E4010C04FD
:105370000C021803F0000000000000000000000014
:10538000000000000000600060005000D0009000AD
:105390009000880088010801F80104030403040256
:1053A000020202060F0F00000000000000000000D3
:1053B000000000000000FE008C030C030C030C0333
:1053C0000C038C01FC000C030C020C060C060C06F2
:1053D0000C060C03FE0100000000000000000000AD
:1053E000000000000000E00318030C060C04040495
:1053F00006000600060006000600060006040C046F
:105400000C021803F0000000000000000000000083
:105410000000000000007F008C010C030C030C0650
:105420000C060C060C060C060C060C060C060C03EF
:105430000C038C017F000000000000000000000051
:10544000000000000000FF03060306040604060037
:1054500086008600FE0086008600860006000604A0
:1054600006040602FF030000000000000000000028
:10547000000000000000FF03060306040604060007
:1054800086008600FE008600860086000600060074
:10549000060006001F0000000000000000000000E1
:1054A000000000000000F00018010C020C020402D1
:1054B0000600060006000600C60F060306030C03DE
:1054C0000C031803F00000000000000000000000C2
:1054D0000000000000000F0F06060606060606067E
:1054E00006060606FE070606060606060606060663
:1054F000060606060F0F0000000000000000000076
:10550000000000000000FC0360006000600060001C
:10551000600060006000600060006000600060008B
:1055200060006000FC0300000000000000000000BC
:10553000000000000000F807C000C000C000C0006C
:10554000C000C000C000C000C000C000C000C0005B
:10555000C000C000C000C60066003C0000000000A3
:10556000000000000000CF038601C60046002600B0
:10557000160036002E006E004600C600860086012A
:10558000060106038F070000000000000000000075
:105590000000000000001F000600060006000600D4
:1055A00006000600060006000600060006000604C7
:1055B00006040602FF0300000000000000000000D7
:1055C0000000000000000707860386038E038E0399
:1055D0004E034E034A035A035A033A03320332037B
:1055E00032031203870700000000000000000000E3
:1055F0000000000000008E0F0C021C021C0234028E
:105600003402640264024402C402840284038403F8
:10561000040304031F02000000000000000000005B
:10562000000000000000F00098010C030C020606C8
:1056300006060606060606060606060606060C0208
:105640000C039801F00000000000000000000000C2
:10565000000000000000FF0006030606060606061E
:10566000060606068603FE00060006000600060083
:10567000060006001F0000000000000000000000FF
:10568000000000000000F00098010C030C02060668
:1056900006060606060606060606060676064C02F8
:1056A000CC039801F0008007000300000000000018
:1056B000000000000000FF010603060606060606BD
:1056C00006060603FE004600C600860086010603A5
:1056D000060306060F0E0000000000000000000098
:1056E000000000000000F8020C030602060206009B
:1056F0000E003C00F800E0038003000702060206EB
:1057000006060C03F001000000000000000000008D
:10571000000000000000FE076204610861086000EC
:105720006000600060006000600060006000600079
:1057300060006000F80100000000000000000000B0
:105740000000000000001E070C020C020C020C02FC
:105750000C020C020C020C020C020C020C020C02D9
:105760000C021801F0000000000000000000000022
:105770000000000000000F070602040104010C01F4
:105780000C018800880098009800500050007000BC
:105790003000200020000000000000000000000099
:1057A000000000000000F70E6204420446044604B4
:1057B00064026402E402E4029C029C0198019801E4
:1057C0008801880088000000000000000000000040
:1057D0000000000000009E070C0108011801900065
:1057E000B0006000200060006000D00090008801E0
:1057F000080104038E070000000000000000000004
:105800000000000000000F0F060404020C02080153
:105810001801B800B0007000600060006000600017
:1058200060006000F80100000000000000000000BF
:10583000000000000000FC070C02060302018001CA
:1058400080004000400020002000100018000804E4
:105850000C040402FE030000000000000000000031
:10586000E003200020002000200020002000200075
:105870002000200020002000200020002000200028
:105880002000200020002000E003000000000000B5
:1058900000000000040004000800080010001000D0
:1058A00010002000200040004000C0008000800068
:1058B00000010001000200020002000400000000DC
:1058C0007C0040004000400040004000400040009C
:1058D00040004000400040004000400040004000C8
:1058E00040004000400040007C00000000006000DC
:1058F000900008010000000000000000000000000F
:105900000000000000000000000000000000000097
:105910000000000000000000000000000000000087
:105920000000000000000000000000000000000077
:105930000000000000000000000000000000000067
:1059400000000000000000000000FF0F0000000049
:1059500018006000000000000000000000000000CF
:105960000000000000000000000000000000000037
:105970000000000000000000000000000000000027
:105980000000000000000000000000000000000017
:10599000F0010C030C030003E0031C030E030603D9
:1059A00006038E0B7C0E00000000000000000000CB
:1059B0000000000008000E000C000C000C000C00A1
:1059C000CC013C031C060C060C060C060C060C064F
:1059D0000C021C03E40100000000000000000000B5
:1059E00000000000000000000000000000000000B7
:1059F000F0008C018C0186010600060006000602FC
:105A00000C020C01F000000000000000000000008B
:105A1000000000000002C0030003000300030003B5
:105A200078038C030C030603060306030603060330
:105A300004038C0778010000000000000000000053
:105A40000000000000000000000000000000000056
:105A5000E001180308020C060C06FC070C000C0001
:105A600018041802E001000000000000000000001F
:105A7000000000000000C003600630063000300067
:105A8000FE013000300030003000300030003000C7
:105A900030003000FC0100000000000000000000A9
:105AA00000000000000000000000000000000000F6
:105AB000F007D8068C018C018C019801F8000C00CD
:105AC000FC00CC03060306038E03F8000000000070
:105AD0000000000008000E000C000C000C000C0080
